:020000040800F2
:10000000D8260020B9040008BD020008BF0200087D
:10001000C3020008C7020008CB020008000000006D
:10002000000000000000000000000000CF020008F7
:10003000D102000800000000D3020008D502000829
:10004000D3040008D3040008D3040008D304000834
:10005000D3040008D3040008D3040008D304000824
:10006000D3040008D3040008D3040008D304000814
:10007000D3040008D3040008D3040008D304000804
:10008000D3040008D3040008D3040008D3040008F4
:10009000D3040008D3040008D3040008D3040008E4
:1000A000D3040008D3040008D3040008D3040008D4
:1000B000D3040008D3040008D3040008D3040008C4
:1000C000D3040008D3040008D3040008D3040008B4
:1000D000D304000891140008D3040008D3040008D6
:1000E000D3040008D3040008D304000800F002F889
:1000F00000F03AF80AA090E8000C82448344AAF188
:100100000107DA4501D100F02FF8AFF2090EBAE885
:100110000F0013F0010F18BFFB1A43F0010318473B
:10012000486F0000686F0000103A24BF78C878C19B
:10013000FAD8520724BF30C830C144BF04680C60ED
:10014000704700000023002400250026103A28BF35
:1001500078C1FBD8520728BF30C148BF0B60704739
:100160001FB51FBD10B510BD04F0D4FB1146FFF73D
:10017000F7FF00F053F804F0F2FB03B4FFF7F2FFCF
:1001800003BC04F0F5FB0000F0B589B006460F464D
:10019000154688208DF804008DF805608DF806500E
:1001A000002101AAE81C1154002405E0395DE01C7F
:1001B00001AA1154601CC4B2AC42F7DB00240AE06F
:1001C00001A9E81C085C095D0844C1B201AAE81C49
:1001D0001154601CC4B2E81C8442F1DB002405E029
:1001E00001A9085D01F05EF9601CC4B2281D8442BB
:1001F000F6DB09B0F0BD30B5002403E000251D5545
:10020000651CECB21C2CF9DB050A9D74D8740D0A30
:100210001D755975150A9D75DA7530BD8AB000F0E7
:100220005DFF4FF4E13001F0E7F84FF4A06000F01B
:1002300063F94FF4FA7000F08EFF012001F032F9FB
:1002400001F0A1F9022001F02DF94FF4FA7000F04D
:1002500082FF02E0002001F025F903F00FFA0028E8
:10026000F8D126E06A4602A901A803F054FA114920
:10027000009805F06FFE074605F0D0FD04460E49D4
:10028000019805F067FE074605F0C8FD05460A49D6
:10029000029805F05FFE074605F0C0FD064603AB79
:1002A00022462946FFF7A7FF1C2203A9AF20FFF72C
:1002B0006BFFD7E7000020410000C842704700BF35
:1002C000FEE700BFFEE700BFFEE700BFFEE77047A6
:1002D00070477047704700000CB5002001900090F7
:1002E0006C48006840F480306A49086000BF694883
:1002F000006800F4003000900198401C01900098C4
:1003000018B90198B0F5A06FF1D16248006800F407
:10031000003010B10120009001E000200090009812
:10032000012843D15C48006840F010005A49086039
:100330000846006820F0030008600846006840F0A6
:1003400002000860534840685249486008464068C7
:1003500048600846406840F480604860084640684D
:1003600020F47C1048600846406840F4E81048607B
:100370000846006840F08070086000BF454800688B
:1003800000F000700028F9D04248406820F00300D7
:10039000404948600846406840F00200486000BF9D
:1003A0003C48406800F00C000828F9D10CBD10B59D
:1003B000FFF792FF10BD10B53648006840F001000D
:1003C000344908600846406834490840314948606B
:1003D00008460068324908402E490860084600680F
:1003E00020F4802008600846406820F4FE00486041
:1003F0004FF41F008860FFF7DAFF4FF000602949D3
:10040000086010BD10B5002100200022214B5B6860
:1004100003F00C0121B1042906D0082928D107E0F6
:10042000214B224C236027E01F4B204C236023E00C
:10043000184B5B6803F47010164B5B6803F4803252
:10044000022303EB904022B9194B4343174C23601E
:100450000DE0104B5B6803F4003323B1144B4343AE
:10046000124C236003E0104B4343104C236003E025
:100470000D4B0E4C236000BF00BF064B5B68C3F3FF
:1004800003130C4CE15C094B1B68CB40074C236009
:1004900010BD000000100240002002400000FFF8E4
:1004A000FFFFF6FE08ED00E000127A0000000020D9
:1004B00000093D0004000020094880470948004722
:1004C000FEE7FEE7FEE7FEE7FEE7FEE7FEE7FEE704
:1004D000FEE7FEE704480549054A064B7047000061
:1004E000B7030008ED000008D8000020D82600203F
:1004F000D8120020D812002031490143314A11603E
:10050000704770B5002100230F22C47804B32D4C2E
:10051000246804F4E064C4F5E064210AC1F1040332
:10052000CA40447804FA03F1847814402143090155
:10053000254C0678A155047804F01F050124AC4031
:1005400005786D11AD0005F1E025C5F8004109E021
:10055000047804F01F050124AC401C4D0678761188
:1005600045F8264070BD1A4A0A400243154B1B1F2E
:100570001A60704739B1134A121D12680243114BB9
:100580001B1D1A6006E00F4A121D126882430D4BB4
:100590001B1D1A607047042808D14FF0E02109693B
:1005A00041F004014FF0E022116107E04FF0E0213B
:1005B000096921F004014FF0E02211617047000049
:1005C0000000FA050CED00E000E400E080E100E04E
:1005D00080FFFF1F10B50446CC48844208D101219A
:1005E000042000F02DFB0021042000F029FB46E050
:1005F000C748844208D10121082000F021FB0021D6
:10060000082000F01DFB3AE0C248844208D10121D5
:10061000102000F015FB0021102000F011FB2EE04F
:10062000BD48844208D10121202000F009FB0021AF
:10063000202000F005FB22E0B848844208D10121C7
:10064000402000F0FDFA0021402000F0F9FA16E009
:10065000B348844208D10121802000F0F1FA002142
:10066000802000F0EDFA0AE0AE48844207D1012173
:10067000801500F0E5FA0021A01500F0E1FA10BDA8
:1006800010B50121084600F0DBFA0021012000F03E
:10069000D7FA10BD2DE9F0410246002500260020C2
:1006A00000230024002791F803C00CF00F0591F8F7
:1006B00003C00CF0100CBCF1000F03D091F802C085
:1006C0004CEA050591F800C0BCF1000F31D0146868
:1006D00000202BE04FF0010C0CFA00F3B1F800C041
:1006E0000CEA03069E4220D183004FF00F0C0CFA57
:1006F00003F7BC4305FA03FC4CEA040491F803C079
:10070000BCF1280F06D14FF0010C0CFA00FCC2F826
:1007100014C00AE091F803C0BCF1480F05D14FF0B6
:10072000010C0CFA00FCC2F810C0401C0828D1D300
:100730001460B1F800C0BCF1FF0F34DD5468002034
:100740002EE000F1080C4FF0010808FA0CF3B1F8A4
:1007500000C00CEA03069E4221D183004FF00F0C2B
:100760000CFA03F7BC4305FA03FC4CEA040491F8C5
:1007700003C0BCF1280F05D100F1080C08FA0CF8F1
:10078000C2F8148091F803C0BCF1480F07D100F102
:10079000080C4FF0010808FA0CF8C2F81080401C51
:1007A0000828CED35460BDE8F0814FF6FF71018078
:1007B000022181700421C1707047024600209368B5
:1007C0000B400BB1012000E0002070470146886813
:1007D00080B2704702460020D3680B400BB1012065
:1007E00000E0002070470146C86880B27047016190
:1007F0007047416170470AB1016100E04161704793
:10080000C16070474FF480320A4382618161826126
:1008100082698269704702460020434B18684FF690
:100820008073184040EA021008433F4B186070473D
:100830003E49C8617047F0B50A46002300240021F4
:10084000002500F00046B6F1004F02D1364EF169A6
:1008500001E0354E7168C0F3034583B200F44016E1
:10086000B6F5401F08D121F070612F4E766826F052
:1008700070662D4F7E6012E000F48016B6F5801F82
:1008800006D1032606FA05F4A14341F0706106E0A3
:10089000460D360103FA06F6B14341F0706122B10C
:1008A000460D360103FA06F6314300F00046B6F174
:1008B000004F02D11C4EF16101E01B4E7160F0BD92
:1008C00030B500228B071C0F0F2303FA04F2164BDE
:1008D00008338C1053F824309343134C08348D1094
:1008E00044F8253023468C1053F824308C07240F0D
:1008F00000FA04F423430C4C08348D1044F82530DE
:1009000030BD0A49DC310860704700000008014032
:10091000000C01400010014000140140001801408B
:10092000001C014000200140000001400000204266
:10093000DF48006840F00100DD4908600846406873
:10094000DC490840DA49486008460068DA4908404E
:10095000D74908600846006820F4802008600846EF
:10096000406820F4FE0048604FF41F008860704724
:10097000CF49096821F48031CD4A116011460968D8
:1009800021F480211160B0F5803F03D0B0F5802FB5
:100990000ED106E0C649096841F48031C44A1160AD
:1009A00007E0C349096841F4A021C14A116000E091
:1009B00000BF00BF704710B5014600220023002091
:1009C0004A11012A02D1BA4C236806E0022A02D158
:1009D000B74C236A01E0B64C636A01F01F020124A0
:1009E00094401C400CB1012000E0002010BD38B53F
:1009F000002000900024002500BF3120FFF7DBFF1E
:100A000005460098401C00900098B0F5A06F01D0FA
:100A1000002DF2D03120FFF7CEFF08B1012400E015
:100A20000024204638BD01460020A14A106820F06D
:100A3000F80040EAC10010607047A04908607047A4
:100A4000024600209A4B586820F47C1042EA0103C9
:100A50001843974B5860704798490866704701469D
:100A60000020934A506820F003000843506070470C
:100A70008F48406800F00C007047014600208C4A07
:100A8000506820F0F0000843506070470146002095
:100A9000874A506820F4E060084350607047014680
:100AA0000020834A506820F4605040EAC100506042
:100AB000704729B17E4A527A02437D4B5A7204E054
:100AC0007B4A527A82437A4B5A7270477B49D831BB
:100AD0000860704701460020754A506820F4404085
:100AE0000843506070470021714A20321170704AEB
:100AF00082F82010012802D004280AD104E0012144
:100B00006B4A2032117005E00521694A20321170CC
:100B100000E000BF00BF7047694908607047644942
:100B2000096A0143624A11627047654944390860A5
:100B3000704730B500210022002400235C4D6D6811
:100B400005F00C0121B1042905D0082923D105E0C5
:100B50005C4D056022E05B4D05601FE0544D6D6803
:100B600005F47012524D6D6805F48034022505EBD2
:100B700092421CB9544D554305600BE04C4D6D68D5
:100B800005F400351DB1504D5543056002E04D4D53
:100B90005543056002E04B4D056000BF00BF444D6A
:100BA0006D6805F0F0010909484D6B5C0568DD4092
:100BB00045603F4D6D6805F4E061090A434D6B5C8B
:100BC0004568DD4085603A4D6D6805F46051C90A9D
:100BD0003E4D6B5C4568DD40C560354D6D6805F484
:100BE0004041890B3A4D6B5CC568B5FBF3F5056177
:100BF00030BD29B12E4A526902432D4B5A6104E09F
:100C00002B4A526982432A4B5A61704729B1284ABC
:100C100092690243264B9A6104E0254A9269824315
:100C2000234B9A61704729B1214AD2690243204B74
:100C3000DA6104E01E4AD26982431D4BDA617047D3
:100C400029B11B4AD2680243194BDA6004E0184A02
:100C5000D2688243164BDA60704729B1144A126990
:100C60000243134B1A6104E0114A12698243104B8C
:100C70001A61704712494039086070470F49C864CB
:100C800070470B49C87170470948406A40F080704E
:100C900007494862704701460020054A92680A40A9
:100CA0000AB1012000E000207047014988727047B6
:100CB000001002400000FFF8FFFFF6FE0000424275
:100CC0008004424200127A0000093D001400002016
:100CD0002400002010B50446FB48844209D10121BC
:100CE0008803FFF7ADFF00214FF48040FFF7A8FF16
:100CF00032E0F648844209D101214804FFF7ADFFF4
:100D000000214FF40030FFF7A8FF25E0F0488442AF
:100D100009D101218804FFF7A0FF00214FF48020B2
:100D2000FFF79BFF18E0EB48844209D10121C8047A
:100D3000FFF793FF00214FF40020FFF78EFF0BE039
:100D4000E548844208D101210805FFF786FF00210C
:100D50004FF48010FFF781FF10BD2DE9F04786B0FA
:100D600005460E460024A24600BFA1460027B089D2
:100D700000B100BF2F462C8A4CF6FF700440F0886B
:100D800004432C82AC894EF6F3100440B0883189BC
:100D90000843718908430443AC81AC8A4FF6FF4095
:100DA0000440B0890443AC8201A8FFF7C2FEC648E4
:100DB000874202D1DDF810A001E0DDF80CA0A8897F
:100DC00000F4004040B10AEBCA0000EB0A103168A1
:100DD0004900B0FBF1F807E00AEBCA0000EB0A108B
:100DE00031688900B0FBF1F86420B8FBF0F0040131
:100DF0002009642101FB1089A88900F4004040B15A
:100E0000322000EBC900B0FBF1F000F00700044312
:100E100008E0322000EB09106421B0FBF1F000F093
:100E20000F0004432C8106B0BDE8F0874FF4165143
:100E3000016000218180C18001810C21418100215C
:100E40008181704710B502460020108A4FF2FF03DF
:100E500018400B884C8823438C882343CC88234339
:100E60001843108210BD0021018041808180C18023
:100E7000704721B1828942F40052828104E0828964
:100E80004DF6FF731A4082817047F0B50346002487
:100E900000260025002040F66A17B94200D100BFA5
:100EA0001846C1F3421401F01F06012707FA06F5A0
:100EB000012C01D10C3004E0022C01D1103000E0F3
:100EC00014301AB107682F43076002E00768AF4388
:100ED0000760F0BD1AB1838A0B43838202E0838AE4
:100EE0008B4383827047028A4FF6F0731A40028266
:100EF000028A0A430282704782894FF2FF731A40C6
:100F0000828182890A438281704721B1828942F0BD
:100F10000202828104E082894FF6FD731A408281C9
:100F20007047028A4FF6DF731A400282028A0A4330
:100F30000282704721B1028A42F48042028204E0B8
:100F4000028A4BF6FF731A4002827047C1F308020F
:100F50008280704701468888C0F308007047818905
:100F600041F0010181817047028BD2B20283028B72
:100F700042EA012202837047028B02F47F4202831D
:100F8000028B0A430283704721B1828A42F0200219
:100F9000828204E0828A4FF6DF731A4082827047B1
:100FA00021B1828A42F01002828204E0828A4FF6E6
:100FB000EF731A408282704721B1828A42F00802A0
:100FC000828204E0828A4FF6F7731A408282704769
:100FD00021B1828942F40042828103E08289C2F316
:100FE0000E028281704721B1828A42F400628282BD
:100FF00004E0828A4FF2FF731A4082827047828A2D
:101000004FF6FB731A408282828A0A4382827047BB
:1010100021B1828A42F00202828204E0828A4FF683
:10102000FD731A408282704702460020B1F5007FAE
:1010300000D100BF13880B400BB1012000E000205D
:10104000704701F40072B2F5007F00D100BFCA43BF
:101050000280704770B5024600240023002500205E
:1010600040F66A16B14200D100BFC1F3421501F04B
:101070001F03012606FA03F3012D02D1968933409E
:1010800006E0022D02D1168A334001E0968A3340F1
:101090000C12012606FA04F41688344013B10CB180
:1010A000012000E0002070BD10B50022002340F6B2
:1010B0006A14A14200D100BF0A1201249440A3B2D5
:1010C000DC43048010BD00000038014000440040B3
:1010D00000480040004C00400050004010B56FF048
:1010E0000400FFF758FA2E4800682E49B0FBF1F0D3
:1010F0002D4908700846007800EB4001C1EBC01094
:101100004FF6FF7101EAC0002849088010BD014672
:10111000254A12784A434FF0E0235A6100229A612F
:101120001A46126942F001021A6100BF4FF0E02234
:10113000106900F001021AB100F48032002AF5D0E3
:101140004FF0E022126922F001024FF0E0231A6111
:1011500000229A6170470146144A12884A434FF0B0
:10116000E0235A6100229A611A46126942F0010294
:101170001A6100BF4FF0E022106900F001021AB1BD
:1011800000F48032002AF5D04FF0E022126922F0FC
:1011900001024FF0E0231A6100229A6170470000BB
:1011A0000000002000127A00280000202A00002001
:1011B00008B501210820FFF729FDC020ADF8000087
:1011C00010208DF8030003208DF80200694689483D
:1011D000FFF760FAC0218748FFF709FB08BD10B58B
:1011E000044634B1012C09D140218248FFF7FFFAAF
:1011F00004E040217F48FFF7FCFA00BF00BF10BDAC
:1012000010B5044634B1012C09D180217948FFF78B
:10121000EEFA04E080217748FFF7EBFA00BF00BF49
:1012200010BD08B58020ADF8000010208DF8030037
:1012300003208DF8020069466E48FFF72BFA08BDBF
:1012400010B5FFF7EEFF0120FFF7DAFF0120FFF7EF
:10125000C6FF0220FFF75BFF0020FFF7D1FF02204F
:10126000FFF755FF0020FFF7BAFF10BD10B5FFF7DD
:10127000D8FF0020FFF7B3FF0020FFF7C1FF0220D7
:10128000FFF745FF0120FFF7AAFF0120FFF7B8FF96
:101290000220FFF73CFF10BD10B580215548FFF735
:1012A0008CFA10BD08B58020ADF8000048208DF8FC
:1012B000030003208DF8020069464E48FFF7EAF963
:1012C00008BD10B5FF24FFF7ACFF0120FFF787FF33
:1012D0000220FFF71CFF0120FFF792FF0220FFF71B
:1012E00016FFFFF7DFFF01E0601EC4B2FFF7D4FF77
:1012F000002C01DD012100E0002108400028F3D18D
:101300001CB9FFF7B3FF012010BD0020FFF767FFF6
:101310000020F9E770B504460025FFF782FF0020A2
:10132000FFF75DFF00BF12E0E009FFF769FF60060D
:10133000040E0120FFF753FF0220FFF7E8FE002014
:10134000FFF74DFF0220FFF7E2FE681CC5B2082D33
:10135000EADB70BD10B50020FFF741FFFFF761FF2A
:101360000020FFF74DFF0220FFF7D1FE0120FFF71D
:1013700036FF0220FFF7CBFE0020FFF730FF10BD45
:1013800010B50020FFF72BFFFFF74BFF0120FFF701
:1013900037FF0220FFF7BBFE0120FFF720FF0220EE
:1013A000FFF7B5FE0020FFF71AFF10BD70B5054628
:1013B0000024FFF777FF002612E00020FFF70FFF61
:1013C0000220FFF7A4FE0120FFF709FF6006040ECC
:1013D000FFF762FF012801D1601CC4B2701CC6B2C5
:1013E000082EEADB15B9FFF7CBFF01E0FFF7B2FFEC
:1013F000204670BD000C014010B586B004460121A6
:1014000044F20400FFF702FC2D48FFF763FC02944E
:101410000020ADF80C00ADF80E00ADF810000C2067
:10142000ADF812000020ADF8140002A92448FFF71F
:1014300094FC18208DF807004FF40070ADF80400FC
:1014400003208DF8060001A91E48FFF723F90420A8
:101450008DF807000002ADF8040003208DF80600A7
:1014600001A91848FFF716F925208DF80000012082
:101470008DF8030003208DF801008DF80200684606
:10148000FFF73FF801210E48FFF7F3FC06B010BD4F
:1014900010B50B48FFF75EFD044621460848FFF7EC
:1014A00055FD10BD10B5044621460548FFF74EFD19
:1014B00000BF40210248FFF7B7FD0128F9D110BD58
:1014C000003801400008014070B504460D4616463C
:1014D000FFF7B6FE002141EA4401C8B2FFF71AFF48
:1014E000FFF7EFFE2846FFF715FFFFF7EAFE30464D
:1014F000FFF710FFFFF7E5FEFFF7B8FE70BD70B510
:1015000004464FF47A7090FBF4F0401EC5B22A46B0
:1015100019216820FFF7D8FF70BD70B504460D464D
:10152000FFF78EFE002141EA4401C8B2FFF7F2FE48
:10153000FFF7C7FE2846FFF7EDFEFFF7C2FEFFF7F5
:101540007FFE012101EB4401C8B2FFF7E3FEFFF784
:10155000B8FE0020FFF72AFF0646FFF787FE304659
:1015600070BD10B50446E006020E1C216820FFF78E
:10157000ABFF10BD10B50446E006020E1B2168202B
:10158000FFF7A2FF10BD10B5FFF712FE6420FFF7B2
:10159000E2FD80226B216820FFF796FF6420FFF7B1
:1015A000DAFD00226B216820FFF78EFF6420FFF731
:1015B000D2FD6420FFF7CFFD0320FFF7DBFF64209F
:1015C000FFF7C9FD0020FFF7CCFF6420FFF7C3FD44
:1015D0003220FFF794FF6420FFF7BDFD0022382181
:1015E0006820FFF771FF6420FFF7B5FD00226A2134
:1015F0006820FFF769FF6420FFF7ADFD002223217B
:101600006820FFF761FF6420FFF7A5FD80223721E6
:101610006820FFF759FF6420FFF79DFD75216820C2
:10162000FFF77BFF0446682C1CD101226B21FFF7DA
:101630004BFF6420FFF78FFD00226C216820FFF72D
:1016400043FF6420FFF787FD3220FFF758FF642037
:10165000FFF781FD04221A216820FFF735FF64207F
:10166000FFF779FD10BD2DE9F04106460F461446FF
:101670001D46FFF7E5FD7106080EFFF74BFEFFF76D
:1016800020FE20B1FFF7F2FD0120BDE8F0813846D1
:10169000FFF740FEFFF715FEFFF7D2FD012101EB3A
:1016A0004601C8B2FFF736FEFFF70BFE0DE0012C36
:1016B00004D10020FFF77AFE287003E00120FFF735
:1016C00075FE2870601EC4B26D1C002CEFD1FFF7B0
:1016D000CDFD0020D9E72DE9F04105460E4617461D
:1016E0009846FFF7ADFD6906080EFFF713FEFFF7FA
:1016F000E8FD20B1FFF7BAFD0120BDE8F0813046DA
:10170000FFF708FEFFF7DDFD00240CE018F80400E9
:10171000FFF700FEFFF7D5FD18B1FFF7A7FD012089
:10172000EBE7601CC4B2BC42F0DBFFF79FFD00207A
:10173000E3E7000038B50446FB4890F82400C0B148
:1017400014B10220009001E000200090F64A1268D7
:10175000D17BF54A526810786B460122FFF7BBFF38
:1017600010B14FF0FF3038BD9DF80010EE484174C5
:1017700023E0ED48807A10B94FF0FF30F3E724B151
:10178000E948407C08B10020EDE714B10120009049
:1017900001E000200090E44A1268D17BE24A5268DE
:1017A00010786B460122FFF796FF10B14FF0FF3023
:1017B000D9E79DF80010DC4841740020D3E738B524
:1017C000002419E0D8480068C07AA04204D0D64866
:1017D0000068407DA04200D10CE0D34949680878F8
:1017E0006B4601222146FFF73EFF10B14FF0FF305C
:1017F00038BD00BF601CC4B2CB4840680079A0422D
:10180000E0DC0020F4E770B504460D46C6480068E9
:10181000C07AA04204D0C4480068407DA04202D1F2
:101820004FF0FF3070BDC04840680079A04202DC34
:101830004FF0FF30F6E7BC49496808782B46012293
:101840002146FFF710FFEDE738B50446B64890F89B
:101850002300A04201D1002038BD14B130200090F7
:1018600001E000200090B048807C20B19DF800008D
:1018700040F002000090AC4890F8220020B19DF8A2
:10188000000040F080000090A74A1268117DA64A2F
:10189000526810786B460122FFF71DFF10B14FF020
:1018A000FF30D9E7A04880F823400020D4E738B5BE
:1018B000044604F0700010B10120009005E014B15E
:1018C0000020009001E040200090974A1268917C2F
:1018D000954A526810786B460122FFF7FCFE20B152
:1018E000002191488172481E38BD9DF8000020F00B
:1018F00040018D4801730020009004F0400020B9A1
:101900009DF8000040F00400009004F0200020B991
:101910009DF8000040F00200009004F0100020B993
:101920009DF8000040F00100009004F0080020B98C
:101930009DF8000040F0380000907B4A1268D17C8E
:10194000794A526810786B460122FFF7C4FE20B135
:10195000002175488172481EC6E724B1082C02D0C8
:101960000020FFF771FF704884720021017532205A
:10197000FFF7F1FB0020B7E738B504466A48807CE2
:10198000A04201D1002038BD002C46D0664A126822
:101990001179654A526810786B460122FFF763FEA1
:1019A00010B14FF0FF30EEE79DF8000020F020006E
:1019B00000905D4A126811795B4A526810786B4654
:1019C0000122FFF788FE10B14FF0FF30DBE7032064
:1019D000FFF7C1FB02200090534890F8220020B18D
:1019E0009DF8000040F0800000904F4890F82300E0
:1019F00020B19DF8000040F0300000904A4A126883
:101A0000117D494A526810786B460122FFF763FE48
:101A1000002851D04FF0FF30B5E7434A12681179E2
:101A2000414A526810786B460122FFF71CFE10B144
:101A30004FF0FF30A7E73C48807A00F0010028B162
:101A40009DF8000040F02000009004E09DF80000A8
:101A500020F020000090344A12681179324A52680E
:101A600010786B460122FFF736FE10B14FF0FF30C1
:101A700089E70320FFF76FFB2B4890F8220010B195
:101A80008020009001E000200090274890F823007B
:101A900020B19DF8000040F030000090224A12680A
:101AA000117D214A526810786B460122FFF713FE20
:101AB00010B14FF0FF3066E71B488474002062E7E6
:101AC00008B51948807A10B94FF0FF3008BD0020E2
:101AD0000090154A1268D17B134A526810786B4601
:101AE0000122FFF7F8FD10B14FF0FF30EEE70E4A8C
:101AF000126851790C4A526810786B460122FFF740
:101B0000EAFD10B14FF0FF30E0E7074A12681179A3
:101B1000054A526810786B460122FFF7DCFD28B1B8
:101B20004FF0FF30D2E700002C000020F74890F87B
:101B30002400002853D00C200090F44A1268117938
:101B4000F24A526810786B460122FFF7C4FD10B1CB
:101B50004FF0FF30BAE73220FFF7FDFAC0200090C7
:101B6000EA48807A00F0010020B19DF8000040F0C2
:101B700020000090E54A12681179E44A5268107812
:101B80006B460122FFF7A7FD10B14FF0FF309DE734
:101B9000DE48407C10B10220009001E0002000905F
:101BA000DA4A1268D17BD94A526810786B46012212
:101BB000FFF791FD10B14FF0FF3087E70020009054
:101BC000D24A12685179D14A526810786B46012284
:101BD000FFF781FD002855D04FF0FF3076E7042055
:101BE0000090CA4A12681179C84A526810786B4648
:101BF0000122FFF770FD10B14FF0FF3066E7C348D8
:101C0000807C20B9C148807A00F0010010B94020E2
:101C1000009001E060200090BC4A12681179BB4A34
:101C2000526810786B460122FFF755FD10B14FF056
:101C3000FF304BE73220FFF78EFAB448407C10B1FA
:101C40000120009001E000200090B04A1268D17B92
:101C5000AE4A526810786B460122FFF73CFD10B186
:101C60004FF0FF3032E7A94A12685179A74A52680B
:101C70001078A64B10330122FFF72DFD10B14FF065
:101C8000FF3023E7002021E770B50446002624F04A
:101C900001049E4890F8240008B1002070BD9B48C4
:101CA000807A10B94FF0FF30F8E79848057C807AC9
:101CB0002040964908740846007CA04202D04FF0AC
:101CC000FF3600E0002614B99048007D18B10120CD
:101CD000FFF730FD02E00020FFF72CFD3CB1FFF7DD
:101CE000EFFE20B1894805744FF0FF30D6E730464B
:101CF000D4E738B504468548807A10B94FF0FF30F4
:101D000038BDBC2C02DB0120009015E0622C02DB08
:101D10000220009010E02A2C02DB032000900BE050
:101D2000142C02DB0420009006E00A2C02DB0520C4
:101D3000009001E0062000907448C07A9DF80010E1
:101D4000884201D10020DBE7704A126891786F4A1F
:101D5000526810786B460122FFF7BDFC10B14FF0BE
:101D6000FF30CDE79DF800106848C1720020C7E73A
:101D700038B50446282C02DD4FF0FF3038BDDCB901
:101D80000020FFF761FD00208DF8000007208DF88E
:101D900001005E4A1268917C5C4A526810786B467A
:101DA0000222FFF798FC10B14FF0FF30E6E7002168
:101DB000564801750020E1E70120FFF745FD20208E
:101DC0008DF80000012C06D100208DF801000520BF
:101DD000FFF78FFF17E0052C06DC01208DF80100CE
:101DE0000520FFF786FF0EE0142C06DC02208DF89C
:101DF00001000A20FFF77DFF05E003208DF80100B8
:101E00001420FFF776FF9DF80100072101EB8010F9
:101E1000C0B28DF801003D4A1268917C3B4A52687D
:101E200010786B460222FFF756FC10B14FF0FF30DE
:101E3000A4E7082135488172002101730121017551
:101E40000020FFF721FF002098E738B504462F480F
:101E5000807A10B94FF0FF3038BD2C4890F824003C
:101E600010B14FF0FF30F7E72848007D50B134B192
:101E7000282C04DCE0B2FFF77BFF0020ECE7002019
:101E8000FFF776FF042C01DA042404E0B4F57A7F2E
:101E900001DD4FF47A744FF47A7090FBF4F0401E39
:101EA000C0B20090194A12685178184A52681078E6
:101EB0006B460122FFF70FFC10B14FF0FF30CBE76C
:101EC0009DF80000401C4FF47A7191FBF0F081B254
:101ED0000E48C1810146C9894810FFF70AFF00205A
:101EE000BAE738B504460948807A10B94FF0FF3098
:101EF00038BD022C06D0042C0AD0082C0BD0102C94
:101F00000FD10BE0002000900EE000002C0000201C
:101F10000820009008E01020009005E018200090B4
:101F200002E04FF0FF30E3E700BFF848407A9DF849
:101F30000010B0EBE10F01D10020D9E7F34A12689D
:101F4000D179F24A526810786B460122FFF7C3FB41
:101F500010B14FF0FF30CBE79DF80000C110EB4807
:101F600041720020C4E738B50446E848807A10B9C9
:101F70004FF0FF3038BDFA2C09D0B4F5FA7F09D004
:101F8000B4F57A7F09D0B4F5FA6F0CD108E00020DF
:101F900000900BE00820009008E01020009005E081
:101FA0001820009002E04FF0FF30E3E700BFD74871
:101FB000007A9DF80010B0EBE10F01D10020D9E7C5
:101FC000D24A12689179D14A526810786B46012240
:101FD000FFF781FB10B14FF0FF30CBE79DF8000019
:101FE000C010CA4908720020C4E71CB580208DF8D3
:101FF0000000C64A1268917CC44A526810786B4649
:102000000122FFF768FB10B14FF0FF301CBD6420C8
:10201000FFF7A1F800208DF80000BC4A1268917CFF
:10202000BA4A526810786B460122FFF754FB10B190
:102030004FF0FF30EAE7B54A1268917DB34A526823
:1020400010786B460622FFF70EFB10B14FF0FF3001
:10205000DCE79DF80500C007400F9DF8031001F074
:10206000010140EA41009DF8011001F0010140EA40
:10207000010474B1012C03D10121A448C17427E0EB
:10208000022C03D10021A148C17421E04FF0FF30A0
:10209000BCE79E4A1268D1789C4A526810786B4619
:1020A0000122FFF7E0FA10B14FF0FF30AEE79DF8E4
:1020B000000000F00F0414B94FF0FF30A6E7042C25
:1020C00003D101219148C17402E000218F48C174FD
:1020D000FF218E488172FF208C490872FF218B48B6
:1020E0004172C1724FF6FF71C181FF210174817489
:1020F0000121017380F82210002180F8231041751E
:1021000001751630016041608160163880F8241036
:1021100080F82510C1844FF4FA60FFF724FF10B156
:102120004FF0FF3072E70220FFF7DBFE10B14FF0F7
:10213000FF306BE72A20FFF7DCFD10B14FF0FF30D6
:1021400064E73220FFF781FE10B14FF0FF305DE70A
:102150000020FFF799FD10B14FF0FF3056E7002047
:10216000FFF70AFC10B14FF0FF304FE70020FFF7F8
:102170009EFB00204AE770477CB504460D46634845
:10218000807A00F0700010B94FF0FF307CBD5F4ADC
:102190001268117B5D4A526810786B460622FFF781
:1021A00062FA10B14FF0FF30F0E79DF801009DF8A2
:1021B000001040EA012000B220809DF803009DF845
:1021C000021040EA012000B260809DF805009DF8F1
:1021D000041040EA012000B2A08015B12846FFF7A4
:1021E000CAFF0020D2E77CB504460D464748807AF6
:1021F00000F0080010B94FF0FF307CBD434A126870
:10220000517B424A526810786B460622FFF72BFA40
:1022100010B14FF0FF30F0E79DF801009DF800107D
:1022200040EA012000B220809DF803009DF80210D2
:1022300040EA012000B260809DF805009DF804107E
:1022400040EA012000B2A08015B12846FFF793FFB5
:102250000020D2E72DE9FE4F05460C462B48807A38
:1022600018B94FF0FF30BDE8FE8F284A1268917B05
:10227000264A5268107802AB0222FFF7F4F910B137
:102280004FF0FF30EFE79DF809009DF8081040EA95
:10229000012006B214B12046FFF76DFF1B494968C3
:1022A000C88803F00FFE194901904968B1F9080088
:1022B00003F0F0FD8346304603F0ECFD59460090F4
:1022C00003F046FF8246019903F0B2FC81461049B3
:1022D00003F040FC80464FF08F4103F03BFE074681
:1022E00003F09CFD28600020BDE710B588B00446CF
:1022F0001CB94FF0FF3008B010BD206850B96068BD
:1023000040B9A06830B90020F5E700002C0000209B
:1023100000000C42FA494968087806AB03221146CE
:10232000FFF7A1F910B14FF0FF30E4E79DF8180076
:10233000082101EB201000F00F00ADF800009DF81F
:10234000190001EB201000F00F00ADF802009DF81D
:102350001A0001EB201000F00F00ADF80400206817
:102360004100BDF90000403091FBF0F000B2ADF843
:10237000100060684100BDF90200403091FBF0F0B0
:1023800000B2ADF81200A0684100BDF90400403071
:1023900091FBF0F000B2ADF81400D9494968087813
:1023A00006AB06221146FFF75EF910B14FF0FF3081
:1023B000A1E79DF819009DF8181040EA012000B22D
:1023C000ADF808009DF81B009DF81A1040EA0120A6
:1023D00000B2ADF80A009DF81D009DF81C1040EAFF
:1023E000012000B2ADF80C00BDF81000BDF80810D7
:1023F000084400B2ADF81000BDF81200BDF80A1094
:10240000084400B2ADF81200BDF81400BDF80C107D
:10241000084400B2ADF81400BDF81000000A8DF8B1
:102420001800BDF81000C0B28DF81900BDF81200F8
:10243000000A8DF81A00BDF81200C0B28DF81B001A
:10244000BDF81400000A8DF81C00BDF81400C0B2DD
:102450008DF81D00AA494968087806AB0622114686
:10246000FFF739F910B14FF0FF3044E7002042E7A1
:102470000146A348007A30B1012807D0022809D0CC
:1024800003280FD10AE0FA2008800EE04FF4FA701A
:1024900008800AE04FF47A70088006E04FF4FA6092
:1024A000088002E00020088000BF00BF00207047C5
:1024B00001469348407A30B1012807D0022808D05D
:1024C00003280CD108E0022008700BE004200870FB
:1024D00008E00820087005E01020087002E04FF0C6
:1024E000FF30704700BF8648C07C18B108784006AE
:1024F000000E08700020F4E701468148C07A0828E1
:1025000017D2DFE800F01704070A0D101318BC20DB
:10251000088013E06220088010E02A2008800DE087
:10252000142008800AE00A20088007E005200880BF
:1025300004E000BF00BF0020088000BF00BF0020F3
:10254000704701466E4890F8240010B14FF0FF30FC
:1025500070476B48C08908800020F9E701460020D9
:102560000880401E704701464FF0FF30704701461B
:102570006348007A30B1012807D0022808D0032828
:102580000CD108E05F4808600BE05F48086008E095
:102590005E48086005E05E48086002E04FF0FF30EA
:1025A000704700BF0020FBE701465548407A30B134
:1025B000012808D002280AD0032810D10BE04FF4DC
:1025C000804008800EE041F69C7008800AE04FF4DD
:1025D0008050088006E04FF40060088002E04FF071
:1025E000FF30704700BF4648C07C10B108884010DB
:1025F00008800020F5E701464148007C0870002073
:10260000704701463E48807A10B10120087001E011
:10261000002008700020704738B504463848807A9A
:1026200010B94FF0FF3038BD354A1268117C344A7A
:10263000526810786B460222FFF715F810B14FF080
:10264000FF30F0E79DF801009DF8001040EA0120FE
:1026500000B220800020E6E72DE9FE4F07468846BD
:1026600092461D46DDF830B000260024244890F83C
:10267000240010B1601EBDE8FE8F002028702048A5
:10268000807A10B94FF0FF30F5E71D48007C10B993
:102690004FF0FF30EFE71A48007C00F0400008B12F
:1026A000B01CC6B21648007C00F0200008B1B01C77
:1026B000C6B21348007C00F0100008B1B01CC6B2CE
:1026C0000F48007C00F0080008B1B01DC6B20C4AEB
:1026D0001268917A0A4A526810786B460222FEF715
:1026E000C2FF10B14FF0FF30C5E79DF801009DF823
:1026F000001040EA0129B1450CDA0020BBE70000D8
:102700002C000020000003430000834233330342C7
:1027100033338341FC4840684088B9EB600F17DDD4
:10272000F94A1268517CF84A526810786B460122C7
:10273000FEF799FF10B14FF0FF309CE79DF80000C5
:1027400000F0100020B1FFF7BBF96FF0010092E735
:102750005046FFF710FDEC4A1268D17AEA4A5268F7
:1027600010786B463246FEF77EFF10B14FF0FF3017
:1027700081E799FBF6F0401E8BF8000000202870DE
:10278000B4422AD0E048007C00F0080028B3601C66
:102790001DF800001DF8041040EA012000B2A8F85E
:1027A0000000E01C1DF80010A01C1DF8000041EA0C
:1027B000002000B2A8F80200601D1DF80010201DC6
:1027C0001DF8000041EA002000B2A8F804002878B3
:1027D00040F008002870A01D84B2B44213D0CA484B
:1027E000007C00F0400070B1601C1DF800001DF876
:1027F000041040EA012000B23880287840F0400000
:102800002870A01C84B2B44213D0BF48007C00F0F2
:10281000200070B1601C1DF800001DF8041040EA93
:10282000012000B27880287840F020002870A01C99
:1028300084B2B44213D0B448007C00F0100070B1F0
:10284000601C1DF800001DF8041040EA012000B2D1
:10285000B880287840F010002870A01C84B20020B6
:1028600009E7F8B504460F461646A74890F8240035
:1028700010B94FF0FF30F8BDA348807A10B94FF07F
:10288000FF30F8E7A04A1268917A9F4A52681078A0
:102890006B460222FEF7E7FE10B14FF0FF30EAE789
:1028A0009DF801009DF8001040EA0125A54203DAD9
:1028B00000203070401EDEE7934840684088B5EB4A
:1028C000600F17DD904A1268517C8F4A5268107869
:1028D0006B460122FEF7C7FE10B14FF0FF30CAE78A
:1028E0009DF8000000F0100020B1FFF7E9F86FF04C
:1028F0000100C0E7E2B2844B1B68D97A824B5B6867
:1029000018783B46FEF7AFFE10B14FF0FF30B2E74C
:1029100095FBF4F0401E30700020ACE701467A4889
:1029200080F82210002070477CB50546764949683A
:10293000087801AB04220D21FEF795FE08B10720AF
:102940007CBD9DF80700C0F301109DF8041001F054
:10295000E00140EAE1008DF800009DF80700C0F3B7
:1029600081009DF8051001F0E00140EAE1008DF8DA
:1029700001009DF8070000F003009DF8061001F02B
:10298000E00140EAE1008DF8020000241CE01DF89F
:10299000040018B9002045F8240013E05B4845F80E
:1029A000240006E055F82400594903F0D3FA45F80D
:1029B00024001DF80400401EC0B20DF804000028D9
:1029C000F0D100BF601CC4B2032CE0DB0020B7E7ED
:1029D0002DE9FE4F06460F4600256846FFF7A4FF87
:1029E000002442E056F8240057F82410A0EB010A16
:1029F000BAF1000F01DB514601E0CAF100010846BF
:102A000003F048FA83464FF08F4103F011F98046F6
:102A10005DF82400002103F0CDF916D05DF82410F4
:102A2000404603F005F982464FF07E5103F090FBDB
:102A3000814629F0004A3748416A504603F056FB68
:102A400012D20120A04005430EE03248C169404641
:102A500003F04CFA05D32F48016A404603F046FBC9
:102A600002D20120A0400543641C032CBADB284697
:102A7000BDE8FE8F2DE9FC5F06460F460025224982
:102A80004968087801AB03220D21FEF7ECFD10B177
:102A90000720BDE8FC9F9DF8040000F01F008DF8A2
:102AA00004009DF8050000F01F008DF805009DF85A
:102AB000060000F01F008DF80600002462E056F8C2
:102AC000240057F82410A0EB010BBBF1000F01DB31
:102AD000594601E0CBF10001084603F0DBF94FF065
:102AE0008F41009003F0A4F8814601A8005DC0B3B7
:102AF0000849086803F0E6F983465946064803F09A
:102B000097F880460FE000002C0000207B14AE3EBA
:102B10001D5A843F5463000800B04C45FE494046AE
:102B200003F018FA804601A8005D401EC0B201A95A
:102B300008550028F2D14146484603F079F883460B
:102B40004FF07E5103F004FB82462AF0004BF3481D
:102B50008169584603F0CAFA13D20120A040054308
:102B60000FE0FFE7ED480169484603F0BFF905D3E0
:102B7000EA484169484603F0B9FA02D20120A04070
:102B80000543641C032C9ADB284682E72DE9F04FAD
:102B900087B005460C46914601208DF810000020B4
:102BA0008DF81100DE4A1268917CDD4A5268107877
:102BB00004AB0222FEF78FFD20B14FF0FF3007B0CB
:102BC000BDE8F08FC820FEF7C6FA00208DF810008F
:102BD000D34A1268D17BD24A5268107804AB0122E2
:102BE000FEF779FD10B14FF0FF30E8E7CC4A1268EC
:102BF0005179CB4A5268107804AB0122FEF76BFD85
:102C000010B14FF0FF30DAE7C54A1268917CC44A30
:102C10005268107804AB0122FEF75DFD10B14FF051
:102C2000FF30CCE7BE4A1268D17DBD4A52681078A9
:102C300004AB0122FEF74FFD10B14FF0FF30BEE7AD
:102C4000B74A12681179B64A5268107804AB01226B
:102C5000FEF741FD10B14FF0FF30B0E70C208DF8CA
:102C60001000AF4A12681179AD4A5268107804AB6F
:102C70000122FEF730FD10B14FF0FF309FE70F202B
:102C8000FEF769FAA648806A407A8DF81000A44AD7
:102C900012689178A24A5268107804AB0122FEF7BC
:102CA0001AFD10B14FF0FF3089E79D48806A007A25
:102CB0008DF810009A4A12685178994A5268107833
:102CC00004AB0122FEF707FD10B14FF0FF3076E7AD
:102CD000B9F1000F07D09248806A807A40F0E00096
:102CE0008DF8100004E08E48806A807A8DF810001C
:102CF0008B4A126891798A4A5268107804AB012293
:102D0000FEF7E9FC10B14FF0FF3058E7B9F1000FC2
:102D100007D08348806AC07A40F0E0008DF8100048
:102D200003E07E48C07A8DF810007D4A1268D179A0
:102D30007B4A5268107804AB0122FEF7CCFC10B13C
:102D40004FF0FF303BE7B9F1000F02D0C820FEF78B
:102D500002FA40208DF81000714A12681179704A09
:102D60005268107804AB0122FEF7B5FC10B14FF0A9
:102D7000FF3024E778208DF81000694A12685179F5
:102D8000674A5268107804AB0122FEF7A4FC10B128
:102D90004FF0FF3013E761498889FEF7DCF9002026
:102DA0008DF810005E4A126851795D4A52681078B9
:102DB00004AB0122FEF78FFC10B14FF0FF30FEE6AE
:102DC000574A1268917A564A5268107804AB022228
:102DD000FEF749FC10B14FF0FF30F0E69DF811000E
:102DE0009DF8101040EA012B0C209BFBF0F0C6B2BE
:102DF0000020A86068602860A06060602060824653
:102E000065E0474A1268D17A454A5268107804ABA7
:102E10000C22FEF728FC10B14FF0FF30CFE69DF8F2
:102E200011009DF8101040EA012000B2ADF8080032
:102E30009DF813009DF8121040EA012000B2ADF891
:102E40000A009DF815009DF8141040EA012000B218
:102E5000ADF80C00BDF90810206808442060BDF9E9
:102E60000A10606808446060BDF90C10A06808444E
:102E7000A0609DF817009DF8161040EA012000B2EE
:102E8000ADF800009DF819009DF8181040EA0120E7
:102E900000B2ADF802009DF81B009DF81A1040EA40
:102EA000012000B2ADF80400BDF900102868084404
:102EB0002860BDF90210686808446860BDF9041014
:102EC000A8680844A8600AF1010000F0FF0AB245B2
:102ED00097DB1248D0F800C02868C117090441EAFE
:102EE0001041070462460023384601F0E3FB3246F6
:102EF0000023CDE9020101F0DDFB28600748D0F88E
:102F000000C06868C117090441EA1041070462461D
:102F10000023384606E0000054E3853F5463000870
:102F20002C00002001F0C6FB32460023CDE902014F
:102F300001F0C0FB6860FE48D0F800C0A868C11767
:102F4000090441EA1041070462460023384601F0B3
:102F5000B1FB32460023CDE9020101F0ABFBA860D2
:102F6000F348D0F804C02168C817000440EA1148AB
:102F70000F04624600233846414601F09BFB32466F
:102F80000023CDE9020101F095FB2060E848D0F86C
:102F900004C06068C117090441EA10410704624691
:102FA0000023384601F086FB32460023CDE90201BA
:102FB00001F080FB6060DE48D0F804C0A068C11753
:102FC000090441EA1041070462460023384601F033
:102FD00071FB32460023CDE9020101F06BFBA060DA
:102FE000A068002804DDA068A0F58030A06003E0A0
:102FF000A06800F58030A0600020E0E538B5044608
:10300000CC4890F82400A04201D1002038BD24B360
:10301000C84890F8250010B94FF0FF30F6E70020BF
:10302000FEF788FB0020FEF7A7FCC249C88CFEF71C
:103030000CFF00200090BF49496808786B460122C8
:103040002321FEF748FB0121BA4880F82410012013
:10305000FEF770FBFEF734FD13E00020FEF76AFB7D
:10306000B448007C0090B349496808786B46012257
:103070002321FEF730FB0021AE4880F82410FEF734
:103080001FFD0020C2E72DE9F04F8DB083460F46AB
:1030900002200C90A74890F8240020B10020FFF7F0
:1030A000ADFF012600E0002603A8FFF7E1F905A81F
:1030B000FFF7FEF901A8FFF71FFA02A8FFF741FA90
:1030C0009C4890F80AA004A8FFF795FA002407E0AE
:1030D000002239465846FFF759FD00B902E0641C4A
:1030E000022CF5DB00BF022C01D1002528E00024D2
:1030F00007E0012206A909A8FFF748FD00B902E090
:10310000641C022CF5DB00BF022C01D1002517E066
:1031100006A93846FFF75CFC00F0FF0809A95846ED
:10312000FFF7A8FC00F0FF090025B9F1000F01D15D
:1031300045F00105B8F1000F01D145F0020500BFCF
:10314000FF207C490872FF217A484172C1724FF614
:10315000FF71C181FF218172017401210173BDF8EA
:103160000C00FEF700FF9DF81400FEF7BAFEBDF854
:103170000400FEF7BEFDBDF80800FEF766FE5046EF
:10318000FEF795FB9DF81000FEF77EFD16B10120BD
:10319000FFF734FF28460DB0BDE8F08FF8B50446C0
:1031A0000D46164616B94FF0FF30F8BD6148807ADB
:1031B00010B94FF0FF30F8E720128DF80000E0B2B0
:1031C0008DF801009DF8010028445A494968498951
:1031D000884202DD4FF0FF30E7E7564A1268117E61
:1031E000544A526810786B460222FEF774FA10B106
:1031F0004FF0FF30D9E7EAB24E4B1B68597D4D4B7B
:103200005B6818783346FEF766FA10B14FF0FF306E
:10321000CBE70020C9E7F8B504460D46164616B9B7
:103220004FF0FF30F8BD4348807A10B94FF0FF30BF
:10323000F8E720128DF80000E0B28DF801009DF84B
:10324000010028443B4949684989884202DD4FF022
:10325000FF30E7E7374A1268117E364A5268107825
:103260006B460222FEF737FA10B14FF0FF30D9E774
:10327000EAB2304B1B68597D2E4B5B681878334699
:10328000FEF7F1F910B14FF0FF30CBE70020C9E7AE
:103290002DE9F04385B005460E46904699462548EF
:1032A00090F8250020B14FF0FF3005B0BDE8F08365
:1032B00016B94FF0FF30F8E7002423E0281B102850
:1032C00001DD102000E0281B87B232193946204664
:1032D000FFF764FF10B14FF0FF30E6E701AA39466F
:1032E0002046FFF798FF10B14FF0FF30DDE73019AF
:1032F0003A4601A901F002FA10B16FF00100D4E7DB
:10330000E01984B2AC42D9DB4FEA28208DF80000E6
:1033100008F0FF008DF80100064A1268917E054A08
:10332000526810786B460222FEF7D5F938B103E0F7
:10333000546300082C0000204FF0FF30B5E7012156
:10334000FE4880F82510A0F826900020ADE7014641
:10335000FA4890F824000870002070474FF0FF30C2
:10336000704702464FF0FF30704701464FF0FF3084
:103370007047F8B505460F461446002C70D0B5F5D9
:10338000FF5F01DDFF2605E0202D01DA012601E0C7
:10339000C5F3471607B90127282C02DD4FF0FF308F
:1033A000F8BDE648407D28BBE44890F8240038B1D9
:1033B0000020FFF723FE0121E04880F8201003E001
:1033C0000021DE4880F82010DC481630FFF750F866
:1033D000DA481830FFF76CF8D8481A30FFF78CF845
:1033E000D6481C30FFF7ADF8D448817A81771F307A
:1033F000FFF701F90020FEF79DF90020FEF7B8FC69
:1034000000208DF80000CD4A12689178CB4A5268AE
:1034100010786B460122FEF75EF910B14FF0FF30D5
:10342000BEE740208DF80000C44A1268D17BC34A31
:10343000526810786B460122FEF74DF900B165E045
:103440008DF800608DF80170BC4A1268117ABB4A91
:10345000526810786B460222FEF73DF908B155E03C
:1034600047E00520FDF777FEB448407A072101EBDD
:10347000C000C0B28DF80000B04A1268D179AF4ADE
:10348000526810786B460122FEF725F900B13DE045
:1034900020208DF80000012C03D100208DF80100C0
:1034A0000EE0052C03DC01208DF8010008E0142C4F
:1034B00003DC02208DF8010002E003208DF80100FA
:1034C0009DF80100072101EB8010C0B28DF80100CA
:1034D0009A4A1268917C994A526810786B46022287
:1034E000FEF7F9F800B111E0012194484175002080
:1034F00056E7924A1632002103E0505C00B105E025
:10350000491C0C29F9D34FF0FF3049E7FF208B49C4
:103510000872FF2189484172C1724FF6FF71C18163
:10352000FF2181720174012101730146887FFEF73A
:10353000BEF98249C88AFEF716FD8049087EFEF76B
:10354000D0FC7E49488BFEF7D4FB7C49888BFEF784
:103550007CFC7A49C87FFEF797FB784890F82000FA
:1035600010B10120FFF74AFD002174484175002089
:1035700016E770B588B002A905A8FFF784FD0446D8
:10358000032C3ED101A8FEF7F2FF059802F082FC61
:103590000646019902F0DEFC054602F03FFC05906C
:1035A000069802F077FC0646019902F0D3FC054626
:1035B00002F034FC0690079802F06CFC0646019974
:1035C00002F0C8FC054602F029FC079005A800F0AF
:1035D00054FA6846FEF7E8FFBDF800100298484329
:1035E0000290BDF80010039848430390BDF8001006
:1035F00004984843049002A800F0D2FA002008B0D2
:1036000070BD0120FBE7014691F90020002A01DD91
:1036100000201EE091F90020002A01DA042018E0C1
:1036200091F90120002A01DD012012E091F9012029
:10363000002A01DA05200CE091F90220002A01DDC0
:10364000022006E091F90220002A01DA062000E0BB
:103650000720704710B504462046FFF7D4FF034605
:10366000E01CFFF7D0FF43EAC00083B2A01DFFF7C4
:10367000CAFF43EA801083B2184610BD70B500241B
:10368000FDF796FDFEF7B1FC002840D17820FEF74B
:103690000EF9C4B20CB1012070BD7820FEF7F4FA27
:1036A000C4B20CB10220F7E76420FEF7CEFBC4B22F
:1036B0000CB10320F0E700F045F9C4B20CB10420CE
:1036C000EAE71F48FFF7C6FF054600F045F9C4B218
:1036D0000CB10520E0E740F2731000F07EFDC4B2AB
:1036E0000CB10620D8E7642000F0F0FAC4B20CB1A7
:1036F0000720D1E7FFF73DFF04460CB10820CBE7D8
:103700000120FFF77BFCC4B21CB10920C4E70A20EA
:10371000C2E70020C0E72DE9F04F99B004460D46FE
:1037200016464FF07E574FF000084FF000094FF05B
:10373000000A12A813A918AB0EAA03E02C0000205F
:1037400058000020CDE9001014A916A800F0A4FE2E
:1037500018B1012019B0BDE8F08FBDF84C0000F49D
:10376000807000287ED00E9802F094FB83464FF0C4
:103770009D4102F05DFA07460F9802F08BFB8346ED
:103780004FF09D4102F054FA8046109802F082FBFF
:1037900083464FF09D4102F04BFA8146119802F0AA
:1037A00079FB83464FF09D4102F042FA824639464A
:1037B0004FF0804002F0CEFB4946059002F0CAFB74
:1037C000414607904FF0404002F0C4FB514605903F
:1037D00002F0C0FB0690079902F0BCF9834602F0A4
:1037E0008DF9CDE9080101F047F94FF06632544BED
:1037F000CDE90A0101F0A8FECDE90C0101F06AFC57
:10380000206049464FF0804002F0A4FB49460290F8
:1038100002F0A0FB414604904FF0404002F09AFBBA
:103820004146029002F096FB0390049902F090FC4E
:1038300083464FF07E5102F08DF9059002F05EF95B
:10384000CDE9080139464FF0804002F083FB414644
:10385000039002F07FFB494604904FF0804002F055
:1038600079FB00E068E05146039002F073FB834669
:10387000049902F06FF9059002F040F9CDE90601D4
:10388000DDE9082301F040FB4FF066322C4BCDE917
:103890000A0101F059FECDE90C0101F01BFC286082
:1038A0005146504602F056FB49460490484602F005
:1038B00051FB41460390404602F04CFB39460190D3
:1038C000384602F047FB0090019902F043F902905C
:1038D000039902F03DFC8346049902F039FC0590FF
:1038E00002F00CF9CDE908015146384602F032FBEE
:1038F00049460490404602F02DFB0390049902F0E3
:1039000029F94FF08041059002F024FB834602F034
:10391000F5F8CDE90601DDE9082301F0F5FA4FF0ED
:103920006632074BCDE90A0101F00EFECDE90C012C
:1039300001F0D0FB306001E002200BE7002009E736
:1039400066A64C4010B5C8234FF48062F74940F694
:10395000F630FFF79DFC10BD10B586B00446F4A00C
:1039600000680390F3A000680290F3A00068019043
:10397000F2A00068009004F0030003A9085C8DF831
:10398000140003A8C4F3C101405C8DF8150003A81E
:10399000C4F38111405C8DF8160004F0030002A905
:1039A000085C8DF8100002A8C4F3C101405C8DF8DA
:1039B000110002A8C4F38111405C8DF8120005AA21
:1039C000032140F22640FFF7E9FB18B14FF0FF302A
:1039D00006B010BD04AA032140F22A40FFF7DEFB27
:1039E00010B14FF0FF30F3E7019805900098049074
:1039F00004F0040058B19DF8140040F001008DF867
:103A000014009DF8100040F001008DF8100004F043
:103A1000200058B19DF8150040F001008DF8150008
:103A20009DF8110040F001008DF8110004F4807041
:103A300058B19DF8160040F001008DF816009DF871
:103A4000120040F001008DF8120005AA03214FF486
:103A50008860FFF7A3FB10B14FF0FF30B8E704AA6E
:103A6000032140F23140FFF799FB10B14FF0FF30D6
:103A7000AEE7B34804810020AAE71FB50446B0486A
:103A8000007A00F0030054F820000190AC48007A5E
:103A900000F0040010B1019840420190A848007A5B
:103AA000C0F3C10054F820000290A548007A00F04D
:103AB000200010B1029840420290A148007AC0F361
:103AC000811054F8200003909D48008900F4807014
:103AD00010B10398404203909A49019880FB01017C
:103AE000800F40EA810001909649029880FB011006
:103AF000820042EA917002909249039880FB011083
:103B0000820042EA917003900198000E8DF8000047
:103B10000198000C8DF801000198000A8DF8020050
:103B20000198C0B28DF803006A4604214FF4747006
:103B3000FFF734FB18B14FF0FF3004B010BD02980E
:103B4000000E8DF800000298000C8DF8010002981C
:103B5000000A8DF802000298C0B28DF803006A4690
:103B600004214FF47570FFF719FB10B14FF0FF30CF
:103B7000E3E70398000E8DF800000398000C8DF821
:103B800001000398000A8DF802000398C0B28DF876
:103B900003006A4604214FF47670FFF7FFFACCE782
:103BA00070B588B0064601A8FEF7FEFCBDF804001B
:103BB0000021C90341EA5045C4036148007A00F07E
:103BC000030056F8200005905D48007A00F00400DC
:103BD00010B10598404205905948007AC0F3C100E1
:103BE00056F8200006905648007A00F0200010B1E8
:103BF0000698404206905248007AC0F3811056F869
:103C0000200007904E48008900F4807010B107989A
:103C1000404207900598C117A0FB042301FB043123
:103C200000FB0510810041EA927005900698C117CB
:103C3000A0FB042301FB043100FB0510810041EAD5
:103C4000927006900798C117A0FB042301FB043172
:103C500000FB0510810041EA927007900598000E64
:103C60008DF808000598000C8DF809000598000AE9
:103C70008DF80A000598C0B28DF80B000698000E6A
:103C80008DF80C000698000C8DF80D000698000ABF
:103C90008DF80E000698C0B28DF80F000798000E40
:103CA0008DF810000798000C8DF811000798000A95
:103CB0008DF812000798C0B28DF8130002AA0C21EB
:103CC0004FF42570FFF76AFA08B070BD30B585B0C3
:103CD00004461DA207CA02AB07C3C82C03DD4FF080
:103CE000FF3005B030BDC82090FBF4F0401E85B217
:103CF000280A8DF80000E8B28DF801006A4602211A
:103D000040F21620FFF74AFA10B14FF0FF30E8E713
:103D100002AA0C2140F6C120FFF740FA10B14FF083
:103D2000FF30DEE7064884810020DAE77C63000884
:103D30004CCD6C000CC92C00365676002646660029
:103D40006400002009E3CA02FEF2ABC4AAF1DFDF7F
:103D5000BBAFDFDF0146FC48808908800020704748
:103D60002DE9FC4706460F4606F0070010B1B7F5EF
:103D7000C86F03DD4FF0FF30BDE8FC87384602F026
:103D8000A1F88146F14901F053FF80466846FEF7ED
:103D90008FFB9DF80000022806D0042816D00828C2
:103DA00026D0102848D135E04FF08D41404602F032
:103DB000D1F8814602F04EF884B2E549404602F05F
:103DC000C9F8814602F046F885B238E04FF08C41E0
:103DD000404602F0BFF8814602F03CF884B2DD496B
:103DE000404602F0B7F8814602F034F885B226E08A
:103DF0004FF08B41404602F0ADF8814602F02AF8C0
:103E000084B2D549404602F0A5F8814602F022F876
:103E100085B214E04FF08A41404602F09BF881469B
:103E200002F018F884B2CD49404602F093F881467A
:103E300002F010F885B202E04FF0FF309CE700BFBF
:103E400020128DF80400E0B28DF8050028128DF8DC
:103E50000600E8B28DF8070006F00100A0B101AA43
:103E600002214FF4EA70FFF799F910B14FF0FF30DB
:103E700082E70DF1060202214FF49270FFF78EF9EE
:103E800010B14FF0FF3077E706F00200A0B101AAB1
:103E900002214FF4EC70FFF781F910B14FF0FF30C1
:103EA0006AE70DF1060202214FF49470FFF776F9EC
:103EB00010B14FF0FF305FE706F00400A0B101AA97
:103EC00002214FF4EE70FFF769F910B14FF0FF30A7
:103ED00052E70DF1060202214FF49670FFF75EF9EA
:103EE00010B14FF0FF3047E7002045E738B50446F2
:103EF0000020009004F0010020B19DF8000040F087
:103F00003000009004F0020020B19DF8000040F065
:103F10000C00009004F0040020B19DF8000040F077
:103F2000030000906A4601214FF4A470FFF736F9B0
:103F300038BD38B50446012C01DA012402E0042C16
:103F400000DD0424601EC0B200906A46012140F2E8
:103F50004F10FFF723F938BD38B50446052094FB10
:103F6000F0F085B228128DF80000E8B28DF801005B
:103F70006A4602214FF4EF70FFF710F938BD38B5EB
:103F80000446052094FBF0F085B228128DF800005D
:103F9000E8B28DF801006A4602214FF4ED70FFF798
:103FA000FDF838BDF8B505460E464FF47A7095FB1E
:103FB000F0F000FB06F4200E8DF80000200C8DF8C8
:103FC0000100200A8DF80200E0B28DF803006A4675
:103FD00004214FF4AE70FFF7E1F8F8BD38B50446A0
:103FE000052094FBF0F084B220128DF80000E0B2BE
:103FF0008DF801006A4602214FF4AD70FFF7CEF84C
:1040000038BD38B50446052094FBF0F084B2201288
:104010008DF80000E0B28DF801006A4602214FF4ED
:10402000AC70FFF7BBF838BD38B5044614B94FF093
:10403000FF3038BD6A4604214FF45870FFF7EBF8A3
:1040400010B14FF0FF30F4E79DF8000000069DF836
:10405000011040EA01409DF8021040EA01209DF85D
:104060000310084320600020E3E738B50446200E23
:104070008DF80000200C8DF80100200A8DF8020058
:10408000E0B28DF803006A4604214FF45870FFF740
:1040900085F838BD38B5044614B94FF0FF3038BD47
:1040A0006A4604214FF47170FFF7B5F810B14FF074
:1040B000FF30F4E79DF8000000069DF8011040EA8B
:1040C00001409DF8021040EA01209DF803100843CA
:1040D00000EB8000800020600020E0E738B5044657
:1040E0001420B4FBF0F4200E8DF80000200C8DF8A5
:1040F0000100200A8DF80200E0B28DF803006A4644
:1041000004214FF47170FFF749F838BD38B5044603
:1041100064B120208DF8000028208DF801003020A7
:104120008DF8020038208DF8030004E0A32204215A
:10413000684600F00FFB6A46042140F69E20FFF718
:104140002DF8FDF7BDFC38BD640000200000484399
:10415000000040460000C045000040450000C0444B
:1041600038B5044664B1C0208DF80000C2208DF837
:104170000100C4208DF80200C6208DF8030004E081
:104180008B220421684600F0E5FA6A46042140F6D5
:104190009820FFF703F8FDF793FC38BD3EB50446C1
:1041A0006CB1FDA1D1E900208968CDE90020029120
:1041B0006A4609214FF49760FEF7F0FF3EBDF9A271
:1041C000D2E900109268CDE9010200916A46092106
:1041D0004FF49760FEF7E2FFF0E73EB50446022099
:1041E0008DF80000CA208DF80100E3208DF8020050
:1041F00009208DF803006A4604216820FEF7CEFFEF
:10420000A3208DF8000004F0400048B1C0208DF8D4
:104210000100C8208DF80200C2208DF8030006E0DE
:10422000A3208DF801008DF802008DF8030004F43E
:10423000C07048B1C4208DF80400CC208DF8050072
:10424000C6208DF8060006E0A3208DF804008DF846
:1042500005008DF80600A3208DF807008DF80800F2
:104260008DF809006A460A2140F6A720FEF796FF5E
:1042700004F0030018B120208DF8000002E0D820DF
:104280008DF800006A46012140F6B620FEF786FF51
:1042900004F0200018B10120FFF780FF02E00020A9
:1042A000FFF77CFF04F4C07008B304F4807060B1C1
:1042B000B2208DF800008B208DF80100B6208DF81B
:1042C00002009B208DF803000BE0B0208DF8000069
:1042D00080208DF80100B4208DF8020090208DF828
:1042E00003006A46042140F6A220FEF757FF04F0BF
:1042F000010020B3F8208DF800006A4601214FF438
:104300000B60FEF74BFFFA210720FFF729FD07207E
:10431000FFF7ECFD0120FFF70CFE6420FFF71CFE09
:104320004FF4FA70FFF72BFEC821A148FFF73AFEC1
:104330002820FFF753FE0A20FFF763FE08E0D8208D
:104340008DF800006A4601214FF40B60FEF726FF4E
:1043500004F0020018B1D9208DF8000002E0D82046
:104360008DF800006A46012140F23D70FEF716FF0D
:1043700004F0040018B10120FFF7F2FE02E0002073
:10438000FFF7EEFE04F0100018B10120FFF7BEFEAB
:1043900002E00020FFF7BAFE44F00800854948819A
:1043A000FDF78EFB00208349887304F0400018B1AC
:1043B0000846807B801D887304F4C07020B17D485E
:1043C000807B801D7B49887304F0140020B17948FC
:1043D000807B10307749887304F0030020B1754862
:1043E000807B001D7349887300203EBD01467148E3
:1043F00040890880002070472DE9F0410446E078AC
:1044000000F0C006E07800F03F05607800F00100A1
:1044100098B1EF102846E91705EB5171C910A5EBCB
:10442000C101491C01F0FF086248006820B16148E1
:10443000414602683846904700BF607800F00800A7
:1044400030B15C48406818B1B0115A4A5168884789
:104450000020BDE8F08110B586B0044656A207CA18
:1044600003AB07C357A207CA8DE80700012C09D088
:10447000022C0ED103AA0B2140F68220FEF78EFEFD
:1044800006B010BD6A460B2140F68220FEF786FE7C
:10449000F6E74FF0FF30F3E72DE9F04F8DB0074618
:1044A000884615469946DDE9166B002400203080C9
:1044B0004049887B5A4605A9FEF7D3F918B1601E1A
:1044C0000DB0BDE8F08F3B48807A00F01400002862
:1044D00061D09DF8140000069DF8151040EA0140D7
:1044E0009DF8161040EA01209DF817100843286037
:1044F0009DF8180000069DF8191040EA01409DF84B
:104500001A1040EA01209DF81B10084368609DF8CE
:104510001C0000069DF81D1040EA01409DF81E1089
:1045200040EA01209DF81F100843A8609DF8200074
:1045300000069DF8211040EA01409DF8221040EA53
:1045400001209DF823100843E86004F11000C4B274
:10455000286800140190686800140290A86800148C
:104560000390E8680014049001984043029901FB0D
:104570000100039901FB0100049901FB010ABAF152
:10458000706F02DBBAF1885F22DDFDF799FA002037
:104590003080401E94E721E0B8AAB38DB4980D3561
:1045A0005D000000B8AAAAAAB088C3C5C700000071
:1045B00009E3CA0264000020D8B1B9F38BA391B615
:1045C00009B4D900DAB1B9F38BA391B6DAB4DA0041
:1045D000B6F9000040F48070308000BF3448807A23
:1045E00000F0400020B305A9601C085C095D40EAAA
:1045F000012000B2A8F8000005A9E01C095C05AA8A
:10460000A01C105C41EA002000B2A8F8020005A935
:10461000601D095C201D105C41EA002000B2A8F872
:104620000400A01DC4B2B6F9000040F008003080BC
:104630001F48408900F4C07008B305A9601C085CDD
:10464000095D40EA012000B2388005A9E01C095C40
:1046500005AAA01C105C41EA002000B2788005A9E0
:10466000601D095C201D105C41EA002000B2B8808A
:10467000A01DC4B2B6F9000040F0700030800C48B4
:10468000807A00F0030018B105A90819FFF7B4FEFD
:104690004846FDF770FD002012E70146044801601E
:1046A000002070470146024841600020704700002A
:1046B0006400002010B54C1084EA530404D5404235
:1046C000C1F1000138BF491E1B4204D55242C3F15B
:1046D000000338BF5B1E00F048F814F0804F04D090
:1046E0004042C1F1000138BF491E14F0004F04D010
:1046F0005242C3F1000338BF5B1E10BD40EA010304
:1047000010B59B070FD1042A0DD310C808C9121F7A
:104710009C42F8D020BA19BA884201D9012010BDB4
:104720004FF0FF3010BD1AB1D30703D0521C07E081
:10473000002010BD10F8013B11F8014B1B1B07D1E5
:1047400010F8013B11F8014B1B1B01D1921EF1D156
:10475000184610BD02F0FF0343EA032242EA024278
:1047600000F087B870477047704753EA020C00F0BA
:1047700069802DE9F04B4FF00006002B1FBFB3FA04
:1047800083F503FA05F424FA05F65E4012BF1643DA
:10479000B2FA82F502FA05F4C5F120051EBF22FA2D
:1047A00005FC44EA0C04203556EA044C4FEA144454
:1047B00018BF641C4FF000084FF00009904271EBE5
:1047C000030C39D3002919BFB1FA81F701FA07F6B2
:1047D000B0FA80F700FA07F6C7F120071EBF20FAEB
:1047E00007FC46EA0C062037B6FBF4FCA7EB0507EE
:1047F000103F07F01F0BCBF120060CFA0BFB2CFA35
:1048000006F644BFB3460026202FA4BF5E464FF0F5
:10481000000B5BEA060C08BF4FF0010B19EB0B090C
:10482000ABFB027C48EB0608C01B06FB02CC0BFB73
:1048300003CC71EB0C01C1E70B46024641464846EA
:10484000BDE8F08B13B54FF000004FF00001AFF35F
:104850000080BDE81C40704710B500F02BF80068E0
:1048600010BD10B5044600F025F8046010BD4FF0EF
:1048700000020429C0F0128010F0030C00F0208028
:10488000CCF1040CBCF1020F18BF00F8012BA8BF3B
:1048900020F8022BA1EB0C0100F012B85FEAC17CFA
:1048A00024BF00F8012B00F8012B48BF00F8012BB2
:1048B0007047000000487047740000204FF000026D
:1048C00000B5134694469646203922BFA0E80C5006
:1048D000A0E80C50B1F12001BFF4F7AF090728BFE1
:1048E000A0E80C5048BF0CC05DF804EB890028BF5D
:1048F00040F8042B08BF704748BF20F8022B11F086
:10490000804F18BF00F8012B704700000048704727
:10491000740000207546FFF7F9FFAE4605006946B2
:10492000534620F00700854618B020B5FBF7D2FDAE
:10493000BDE820404FF000064FF000074FF00008A0
:104940004FF0000B21F00701AC46ACE8C009ACE821
:10495000C009ACE8C009ACE8C0098D46704710B585
:104960000446AFF300802046BDE81040FBF705BCCD
:1049700001491820ABBEFEE726000200704749003F
:1049800050EAC12018BF04204A0D18BF40F00100B2
:1049900040F2FF72B2EB515F08BF40F00200012805
:1049A00008BF052070472DE9F0414F1E00EBC701FD
:1049B0000446D1E9000115461E4637F006020DD027
:1049C0002A46334600F0C0FD7F1E04EBC703D3E93F
:1049D000002300F0B1FB37F00602F1D1022F25D001
:1049E000042F13D0062F18BFBDE8F0812A463346A6
:1049F00000F0AAFDD4E90A2300F09EFB2A463346C4
:104A000000F0A2FDD4E9082300F096FB2A463346C5
:104A100000F09AFDD4E9062300F08EFB2A463346C7
:104A200000F092FDD4E9042300F086FB2A463346C9
:104A300000F08AFDD4E9022300F07EFB2A463346CB
:104A400000F082FDD4E90023BDE8F04100F074BB22
:104A5000012201F024BC00F06FBB00221346104677
:104A6000114600F019BC0000024A0020110701F0B5
:104A700016BC000001FDFFFF2DE9F04D8D4F21F028
:104A8000004A86B005460C46BA452ADBAAEB070069
:104A900028430AD08848824501DC1AD1CDB106B03E
:104AA0002846BDE8F04DFFF7D3BF844A844B284623
:104AB00000F04AFD07460E46824A834B28462146AF
:104AC00000F042FD06B03A463346BDE8F04D00F036
:104AD00033BB0120FFF7C5FE06B0BDE8F04DFFF780
:104AE000BCBF7A48824542DABAF1795F0BDA2846D0
:104AF000FFF745FF042808BFFFF7B6FF284606B0BA
:104B00002146BDE8F08D2A460B46104600F01CFDFC
:104B1000834602466E480E460B4606217844FFF750
:104B200042FF5A46334600F00FFD804669488A46E8
:104B30005A46334604217844FFF735FF5A46334638
:104B400000F002FD00223B4600F0F6FA02460B465A
:104B50004046514600F0A0FB2A46234600F0F4FCF4
:104B600006B02A462346BDE8F04D00F0E5BA2846D7
:104B700024F0004100223D463B4600F0E3FD4FF0AB
:104B8000FF3201F08CFB0646024653480F460B46A7
:104B900006217844FFF707FF32463B4600F0D4FC7D
:104BA000CDE900014D4832463B4604217844FFF7E9
:104BB000FAFE32463B4600F0C7FC00222B4600F0CE
:104BC000BBFA834602913046394600F05DFA8046D2
:104BD00043480D46504517DCDDE900015A46029B6B
:104BE00000F05AFB42462B4600F0AEFC42462B46F4
:104BF00000F0A2FA012201F052FB304A304B00F0E3
:104C000093FE304A304B4CE04FF0000A52460B46C0
:104C1000404600F091FACDE9031052462B4610466B
:104C2000194600F091FC32463B4600F08BFDDDE971
:104C3000033200F031FB06460F46DDE900015A461B
:104C4000029B00F029FB8346009101223046394641
:104C500001F025FB194A1A4B00F074FD06460F4679
:104C600001224046294601F01AFB5A46009B00F0FB
:104C70006BFC32463B4600F057FE06460F460122CB
:104C80005046294601F00BFB0E4DDFF858802A46AE
:104C9000434600F057FD32463B4600F053FD2A469E
:104CA000434600F04FFD002CD8BF81F0004106B014
:104CB000BDE8F08D0000F03F0000F07F075C14338A
:104CC00026A6913C182D4454FB21F93F0000E03FFB
:104CD000582400006E240000E2230000F8230000A6
:104CE0003333EF3FFB21E93F2DE9F84F04460D46F2
:104CF00021F0004000917349814211DC72498842E1
:104D000001DC06D12CB120462946BDE8F84FFFF75B
:104D10009FBE6E48002DCCBF6D496E49BDE8F88F2F
:104D20006D49814211DD6D498142D8BF4FF0FF3698
:104D30006DDD20462946FFF722FE042808BFFFF755
:104D400093FE20462946BDE8F88F6549654F25F05A
:104D50000045814233DD6449814219DD0026324637
:104D60004FF080432046294600F0E6F980468A4607
:104D700001222046294601F092FA00223B4600F02B
:104D8000D3FD4246534600F087FA04460D463EE006
:104D900001260022BA463B462046294600F0CCF9BF
:104DA00080460F46002253462046294600F0BCFDAF
:104DB00042463B4600F070FA04460D4627E04B4958
:104DC00081421BDDDFF828A102260022534620463F
:104DD000294600F0B9FB00223B4600F0ADF98046C1
:104DE0000F46002253462046294600F09DFD4246CC
:104DF0003B4600F051FA04460D4608E003262246E1
:104E00002B4600203B4900F047FA04460D46224657
:104E10002B461046194600F097FB8B468246024609
:104E20000B4600F091FB07460246334888460B4686
:104E300006217844FFF7B7FD52465B4600F084FB3D
:104E400082462E488B463A46434605217844FFF772
:104E5000AAFD3A46434600F077FB02460B46002E79
:104E6000504659460CDA00F067F922462B4600F00E
:104E70006BFB01B022462B46BDE8F04F00F062BC50
:104E800000F05AF922462B4600F05EFB1C4A7A4499
:104E900002EBC603D3E9002300F046FD22462B4671
:104EA00000F042FD174A7A4402EBC603D3E900231F
:104EB00000F048FC009A002AB8BF81F00041BDE82C
:104EC000F88F0000000010440000F07F182D4454BB
:104ED000FB21F93FFB21F9BF0000DC3F0000203E31
:104EE0000000F33F0000F03F0000E63F0080034079
:104EF0000000F83F0000F0BFFA210000B8210000D8
:104F0000562100001E2100002DE9F04D9446CCF101
:104F1000000423F000464CEA0404524F46EAD474DD
:104F20009A46884621F00042BC4206D8454240EAF3
:104F3000050442EAD474BC4204D9BDE8F04D62468F
:104F4000FFF789BDAAF14055A5F17F6555EA0C042C
:104F50000BD0022404EAAA74434DDFF810E144EABE
:104F6000D87452EA000B04D00CE0BDE8F04DFFF716
:104F7000BBBE002C14BF012CBDE8F08D022C30D03C
:104F8000032C32D056EA0C0B0AD0BE4220D1BA42D2
:104F900009D126F0804622F080423346114617E0C0
:104FA00000291ADB25E0DFF8C8B0FB44002C04BF61
:104FB000DBE90001BDE8F08D012C02BFDBE9000157
:104FC00081F00041BDE8F08D022C0AD0032C0CD0FA
:104FD000BA4212D1B8F1000F0BDA23482549BDE8D7
:104FE000F08D28462449BDE8F08D28467146BDE87D
:104FF000F08D1D482149BDE8F08D921B12153C2A09
:10500000C4BF19481D490EDCBAF1000FBEBF12F132
:105010003C0F0020014606DB624600F03DF921F01E
:105020000041FFF761FE002C08BFBDE8F08D012CA8
:1050300004BF81F00041BDE8F08D114A114B022CF4
:1050400007D000F071FC2A46BDE8F04D0A4B00F095
:105050006BBC00F069FC2A46BDE8F04D064B00F041
:1050600071BB00000000F07F182D4454FB2109C0E3
:10507000B2200000FB21F9BFFB210940FB21F93FD1
:10508000075C143326A6A13C2DE9F04106460F46E5
:1050900000F064FB041E0D4618BF0120284320F0D9
:1050A0000040C0F17F6000F1E040C00F0ED0301C26
:1050B00018BF0120384320F00040C0F17F6000F1AC
:1050C000E040C00F04BF0120FFF7CBFB204629467C
:1050D000BDE8F08121F00042A2F16052B2F5801FDC
:1050E00001F0004328BFD2F17F6C0BD95FEA001CAE
:1050F00043EAC20242EB507018BF704728BF20F04D
:1051000001007047B2F5801FBCBF184670474FEAD8
:10511000410C1CF5001F02D2084600F0E2BF70B53A
:1051200000F0BCFA00000089FFF7F6BF4FF0004026
:10513000A0F580007047000010B591EA030F48BF4A
:1051400083F0004300F1F883841A71EB030C05D25D
:10515000121943EB0C03001B61EB0C01DFF824E197
:105160004FEA1154A4EB135C1EEA430F18BF9EEAEA
:10517000445F73D023EA0E03DCF1200E21EA0451D0
:1051800043F4801332D322FA0CFE10EB0E0023FA04
:105190000CFE41EB0E01CCF1200E03FA0EFE10EBDB
:1051A0000E0051F10001B1F5801FCCF1200E32D27A
:1051B00001EB045112FA0EF2BDE8104058BF7047DF
:1051C000401C38BF5FEA420218BF7047002814BF76
:1051D00020F0010041F100014FEA410313F5001FE7
:1051E00038BF7047A1F1C04100F0A6BA012A43EBD5
:1051F0000302ACF1200CDCF11F0E32BF4FF0000EA9
:1052000023FA0CF310EB030041EB0451B4EB115FF4
:10521000D0D0A1EB045101F5801149085FEA3000BC
:1052200001EB04510ED350F1000038BF12FA0EFE0C
:1052300008D1BDE81040C9E7401C38BF5FEA420210
:10524000CAD1C3E7BDE810404FEA410313F5001F80
:1052500038BF7047A1F1C04100F06EBA9EEA445FCA
:1052600008D011EA5E0FBDE8104004BF01F0004114
:1052700000207047BDE8104070B500F00FFA00BF85
:1052800064FBBE3E0000E0FF02494FF0000000F06A
:10529000D4BF00BF0000F87F2DE9C04130B4DFF873
:1052A000A0C23CEA111418BF3CEA131400F0EC80D1
:1052B00081EA03051CEA111444EAD57418BF1CEAFC
:1052C000131500F0C780A4EB05044FF0004545EA34
:1052D000C12145EAC32341EA505143EA525304F144
:1052E0007F74994204F500344FEAC0204FEAC2228D
:1052F00008BF904200F09C804FEA13650FF2401601
:10530000765D4FEA134506FB05F7C7F1807706FB8C
:1053100007F74FEAD737A7FB03687642C8F580380E
:10532000A7FB06CE38BFA8F1010807FB08E64FF03F
:10533000000EA6FB028CE6FB03CEDCF1000CCEF1E6
:10534000004E38BFAEF1010EA6FB0C584FF000071F
:105350004FF00005E6FB0E87A1FB08C6A0FB07CEB9
:1053600016EB0E0645F10005E1FB076515F1E04E71
:105370007EBFA4F580345FEA46066D4116F18007D2
:1053800045F100054FEA17274FEA066647EA056729
:10539000A6F1DE46B6F1805F4FEA15251FD93846E3
:1053A00024F0010C05EBC471BCF1FE6F01EB0C1194
:1053B00002D8F0BCBDE8008124425CBF01F5801E2C
:1053C0009EEAC47F02D4F0BCBDE80081244238D4F8
:1053D000F0BCA1F1C041BDE8004100F0ADB94FEA19
:1053E000D22242EA43524FEAD323A7FB02864FEA76
:1053F000D02040EA415007FB03661EEA0E0F4FEA39
:10540000D12105FB026658BFA6EB0056B6EB00564D
:105410004FEA520E4EEAC37E18EB0E0E56EB530EB9
:10542000BDD518EB02085E417F1C55F10005B6E7BB
:105430004FF480154FF000074FF000064FF00008C2
:10544000ADE7F0BC4FF0000001F1C04101F00041B8
:10545000BDE8008111EA0C1F0CEA131500D00CE026
:1054600013EA0C1F00F025804FF00000F0BC81EA29
:10547000030101F00041BDE80081F0BCBDE800413E
:1054800081EA030100F058B9F0BCBDE8004170B5F5
:1054900000F004F9097EFC3E00F007B881EA030140
:1054A0004FF0000001F00041704781EA030100F075
:1054B00043B9F0BCBDE800414FF0000021497047FE
:1054C000FFFDFBF9F7F5F4F2F0EEEDEBE9E8E6E4C9
:1054D000E3E1E0DEDDDBDAD8D7D5D4D3D1D0CFCD50
:1054E000CCCBCAC8C7C6C5C4C2C1C0BFBEBDBCBB89
:1054F000BAB9B8B7B6B5B4B3B2B1B0AFAEADACAB84
:10550000AAA9A8A8A7A6A5A4A3A3A2A1A09F9F9E5D
:105510009D9C9C9B9A99999897979695959493930F
:10552000929191908F8F8E8E8D8C8C8B8B8A8989A6
:105530008888878786858584848383828281818029
:105540000000FF070000F87FDFF848C170B51CEAD3
:10555000111E1EBF1CEA13159EEA0C0F95EA0C0FD4
:1055600000F06F8081EA030423EA4C134EEAD47EF4
:1055700021EA4C1141F4801143F48013AE44A1FBA5
:10558000024CA0FB0365AEF17F7E361955EB0C058E
:10559000A1FB034C4CF10003A0FB021C16EB0C0614
:1055A000654153F10003094218BF46F0010613F4A8
:1055B000007F0BD14FEA03314FEA0530340341EA53
:1055C000155140EA16506FF003020AE04FEAC3217A
:1055D0004FEAC520F40241EA555140EA56506FF0B7
:1055E000020202EB2E4201EB025585EACE710AD08F
:1055F0005FEA440C18BF24F0004450F1000041F170
:10560000000120EAD47040F2FE7C624500D270BDF9
:10561000A84214BF4FF080444FF04044002E08BF12
:105620000024BEF1806FA8BFA1F1C041BDE8704069
:1056300080F282804FF0000001F1C04101F0004192
:1056400070479EEA0C0F0CEA131518BF95EA0C0F71
:1056500006D04FF0000081EA030E0EF0004170BD4D
:1056600000F01CF88900013E00F007B800F009B80E
:105670004FEA430C5FEA5C5C08D081EA030100F06A
:105680005BB84FEA410C5FEA5C5CF6D14FF000007A
:10569000014970470000FF070000F87F0EF1020E7D
:1056A0002EF0030E5EF8046B364205D4012A43EB5C
:1056B000030515F5001F12D8012841EB010C1CF55C
:1056C000001F0CD80ED14FEAD17C15F5001F0CEB52
:1056D0004C0C0CF1020C08BF4CEBD37C04E04FF0F7
:1056E000080C01E04FEAD37C0CEB4C0526FA05F6DA
:1056F00006F00706B6F1040C06D20EEB860CBDE8E8
:1057000070404CF0010C6047DFE80CF0090B02021E
:105710004FF000414FF00000A1F5002170BD194687
:105720001046012851EB010418BFD4F5001484BFC2
:10573000002001F0004170BD0808A0F500114FEAFB
:105740003101704791EA030F10B581F000413FF538
:10575000FBAC83F0004300F0EFB800002DE9F0410E
:1057600001F5801CBCF5001FC0F2C3804FEA115C3C
:1057700021EA0C510CF1FD0C41F480115FEA5C0C44
:105780000CF5C07C01D3400049413DA4890241EAA7
:10579000905187028E0E0A0CA45D04FB04F602FBF6
:1057A00006F6C6F14046A4FB0662F60D46EA42261E
:1057B00006FB06F4A4FB01235242C3F1404338BF69
:1057C0005B1EA6FB02420024E6FB0324D20B42EA46
:1057D0004446A6FB0623A1FB02E2A3FB07E4A418B0
:1057E0004FF0000252F10002E3FB01426442C2F1B9
:1057F000404E38BFAEF1010EA6FB04234FF000026D
:10580000E6FB0E32A2FB03464FF00004B61954F13A
:105810000004E2FB0264A1FB06E6A4FB07E816EB2A
:1058200008064FF0000858F10008E4FB01687642D2
:10583000C8F1405838BFA8F10108A2FB06E4A3FB59
:1058400008E52D194FF0000454F10004E2FB085460
:10585000A1FB05E6A7FB04E818EB06084FF00006DD
:1058600056F10006E1FB048618F1200556F100060A
:10587000A809A8F11B08B10908F03F08B8F10A0F00
:1058800040EA86601CD901EB0C51BDE8F08100BFF5
:10589000FCF5EEE8E2DDD8D3CFCBC7C3C0BDB9B6C7
:1058A000B4B1AEACA9A7A5A3A19F9D9B9A989695CC
:1058B0009392908F8D8C8B89888786858483828153
:1058C000A0FB006800FB01F208EB4208B8EB872858
:1058D00007D5341858EB0104D5D5401C51F100010F
:1058E000D1E7341A78EB0104CDD4401E71F10001E8
:1058F000C9E75FEA4C0C5FEA9C5C0DD105D34FF021
:10590000000001F00041BDE8F081BDE8F04170B554
:10591000FFF7C4FE6DDBFFBEBDE8F0414FF00000B5
:10592000004970470000F87F10B591EA030F48BFA7
:1059300083F000433FF508AC841A71EB030C07D2E7
:1059400012198CF0004C43EB0C03001B61EB0C01B3
:10595000DFF8A4E14FEA1154A4EB135C1EEA430FF5
:1059600018BF9EEA445F00F0B08023EA6E03524203
:1059700021EA0451C3EB6E0338BF5B1EDCF1200E3D
:1059800025D322FA0CFE10EB0E0043FA0CFE41EB7D
:105990000E01CCF1200E03FA0EFE10EB0E0051F1B9
:1059A0000001CCF1200E29D412FA0EF201EB0451C1
:1059B000BDE8104058BF7047401C1CBFB2F1004FFB
:1059C000704700280CBF491C20F00100704712EB03
:1059D000020E43EB030218BF4FF0010E4EEA4202E3
:1059E000ACF1200CDCF11E0E54D943FA0CFE10EB86
:1059F0000E0051F1FF31CCF11E0ED5D50EF1010E86
:105A000012FA0EFE404141EB010101EB445C5FEAFA
:105A10005C5C10D910EBDE7001EB045138BFBEF1B5
:105A2000004FBDE8104018BF704700280CBF491C4C
:105A300020F00100704730D24FEAD42C11F500114C
:105A400024F400641BD0B1FA81F20B3AA41AA41E0C
:105A5000D2F12003914030FA03F31943904001EB57
:105A6000CC71002C01EB0451BDE81040A8BF704779
:105A700001F1C0414FF0000001F000417047B0FA61
:105A800080F310FA03F100D110BDE41A173C480569
:105A9000C90AE4E701EB045110BD491001EB0451C0
:105AA000BDE810404FEA300002E04FF000017047BF
:105AB0004A0008BF0042F8D0B2F5001F28BF704767
:105AC00001F000414FF0000070479EEA445F07D0AC
:105AD00011EA5E0FBDE8104004BF002100207047AE
